:10000000F4EF04F00000000000EF00F0000000003A
:0A0010000000000000000000F3D71C
:10001C007CC062F07DC063F0000E646E656E010EF4
:04002C00666E1200EA
:10003000C7B409D01F0EC514016E0150000A03E1B8
:0A004000010E006E01D0006A1200EC
:10004A00020E0C6E490E0D6E0D2EFED70C2EFCD72D
:06005A000000000012008E
:10006000220E0C6E086A096A0A6A0B6A0C06D8B47A
:100070001FD0D8900B320A320932083203320232D2
:1000800001320032D8A0F2D70C06D8B409D00450FF
:1000900008260550092206500A2207500B22EAD7EB
:1000A000045008260550092206500A2207500B2248
:0200B00012003C
:1000B2000134083609360450085E0550D8A0053CC4
:1000C200095E003601360F0E0C6E01340836093611
:1000D200045000A006D0085E0550D8A0053C095E79
:1000E20005D008260550D8B0053C09260036013651
:1000F2000C2EEBD700B006D0045008260550D8B01D
:08010200053C09260000120073
:10010A000450000A08E10550000A05E1FF0E006EDE
:10011A007F0E016E57D00D6A096A086A01500010F5
:10012A00D8B4000C015005180A6E0ABE0D1E0B6ADF
:10013A0005AE05D0041E051E042AD8B4052A01AE50
:10014A0005D0001E011E002AD8B4012A015005104C
:10015A000A6E0ABE10D0A8DF0BB020D00DAE000C7C
:10016A00001E011E002AD8B4012A081E091E082AE8
:10017A00D8B4092A000C05AE0DD001BE07D0015033
:10018A00096E0050086E016A006AE8D7016A006ABF
:10019A00002A000C011E001E0B2ADDD7082AD8B43B
:1001AA00092A0450085CD8A4D9D70550095CD8A4F8
:1001BA00D5D7096A086A002AD8B4012A01AECED76F
:0601CA000000FF0C120012
:0401D000C5841200D0
:1001D400756A766A7650120802E175508E0807E354
:1001E40025DF005201E003D0754A762AF3D7120EB8
:1001F400765C02E18F0E755C03E37B0E006E05D026
:0C020400C580C5A001D0FDD7006A120023
:100210009E9675C0C9FFC7A401D0FDD79EB601D078
:10022000FDD7C5BC02D0006A03D0C584020E006EA3
:020230001200BA
:100232007B6A77C001F0010E006E015004E00036C7
:100242000090FF0FFBD700C07AF075C0E9FF76C0BF
:10025200EAFF0050EE14016E0152010ED8A4000E06
:10026200006E7950001A18E07850000804E2ECDEC3
:10027200EBDE7806F9D775C0E9FF76C0EAFF7A505F
:10028200EE14016E0152010ED8A4000E006E7950D8
:0E029200001A02E0FF0E7B6E7BC000F012002F
:1002A000665205E1010E7C6E000E7D6EB7DE62C007
:1002B00000F063C001F064C002F065C003F06D0E91
:1002C000046E4E0E056EC60E066E410E076EC8DE3B
:1002D000390E0024056E300E0120066E000E02203D
:1002E000076E000E0320086E07C000F008C001F082
:1002F000000E08BEFF0E036EFF0E00167F0E0116E5
:10030000000E0216031600C062F001C063F002C0C6
:0803100064F003C065F0120067
:100318009E96C5869EB601D0FDD7C9CF01F075500F
:10032800000A02E1C58A01D0C59A9E96C5889EB684
:0A03380001D0FDD701C000F0120053
:10034200086A096A100E0C6E013408360936045028
:10035200085E0550D8A0053C095ED8B007D004500D
:1003620008260550D8B0053C0926D890003601363B
:060372000C2EEAD7120078
:10037800400E006E1F0E016E000E026E036E12001C
:100388000B6A0A6A096A086A0E6A03340836045056
:10039800085E0550D8A0053C095E0650D8A0063C6A
:1003A8000A5E0750D8A0073C0B5EE86AD8A0010E89
:1003B8000E5E0336070E0C6E0334083609360A360D
:1003C8000B360E36045003A012D0085E0550D8A094
:1003D800053C095E0650D8A0063C0A5E0750D8A026
:1003E800073C0B5EE86AD8A0010E0E5E11D0082605
:1003F8000550D8B0053C09260650D8B0063C0A2658
:100408000750D8B0073C0B26E86AD8B0010E0E2674
:1004180003360C2ED1D70234083609360A360B3685
:100428000E36045003A012D0085E0550D8A0053C33
:10043800095E0650D8A0063C0A5E0750D8A0073CC3
:100448000B5EE86AD8A0010E0E5E11D00826055092
:10045800D8B0053C09260650D8B0063C0A260750F5
:10046800D8B0073C0B26E86AD8B0010E0E26023633
:10047800070E0C6E0234083609360A360B360E366D
:10048800045002A012D0085E0550D8A0053C095EB1
:100498000650D8A0063C0A5E0750D8A0073C0B5E61
:1004A800E86AD8A0010E0E5E11D008260550D8B013
:1004B800053C09260650D8B0063C0A260750D8B095
:1004C800073C0B26E86AD8B0010E0E2602360C2E21
:1004D800D1D70134083609360A360B360E360450A1
:1004E80002A012D0085E0550D8A0053C095E06504F
:1004F800D8A0063C0A5E0750D8A0073C0B5EE86A05
:10050800D8A0010E0E5E11D008260550D8B0053CC3
:1005180009260650D8B0063C0A260750D8B0073C32
:100528000B26E86AD8B0010E0E260136070E0C6EAF
:100538000134083609360A360B360E36045001A047
:1005480012D0085E0550D8A0053C095E0650D8A018
:10055800063C0A5E0750D8A0073C0B5EE86AD8A0A4
:10056800010E0E5E11D008260550D8B0053C0926AC
:100578000650D8B0063C0A260750D8B0073C0B26D0
:10058800E86AD8B0010E0E2601360C2ED1D70034F9
:10059800083609360A360B360E36045001A012D03A
:1005A800085E0550D8A0053C095E0650D8A0063C58
:1005B8000A5E0750D8A0073C0B5EE86AD8A0010E77
:1005C8000E5E11D008260550D8B0053C0926065005
:1005D800D8B0063C0A260750D8B0073C0B26E86A74
:1005E800D8B0010E0E260036070E0C6E0034083601
:1005F80009360A360B360E36045000A012D0085EB3
:100608000550D8A0053C095E0650D8A0063C0A5EF5
:100618000750D8A0073C0B5EE86AD8A0010E0E5E12
:1006280011D008260550D8B0053C09260650D8B088
:10063800063C0A260750D8B0073C0B26E86AD8B013
:10064800010E0E2600360C2ED1D700B00ED0045065
:1006580008260550D8B0053C09260650D8B0063CF7
:0C0668000A260750D8B0073C0B261200F1
:0A067400C582C5A201D0FDD7120017
:10067E007506750675C001F075060150000803E297
:10068E0000000000F7D7000000000000000000008E
:02069E00120048
:1006A0000900F5CFE6FF0006FBE10106F9E11200C3
:1006B00063DEE80E046E030E056E000E066E076E16
:1006C000CFDC00C071F001C072F002C073F003C053
:1006D00074F069C004F06AC005F0000E066E076E83
:1006E00053DE00C071F001C072F002C073F003C0AD
:1006F00074F000C005F001C006F002C007F003C0AE
:1007000008F00832073206320532089E08320732F6
:1007100006320532089E05C000F006C001F007C091
:1007200002F008C003F00332023201320032039EAD
:1007300000C06DF001C06EF01FDE6BC004F06CC035
:1007400005F0000E066E076E8BDC6DC009F06EC002
:100750000AF0000E0B6E0C6E030E086E09C004F05A
:100760000AC005F00BC006F00CC007F0085007E007
:1007700004360490053606360736FF0FF8D704DE38
:1007800000C071F001C072F002C073F003C074F0D9
:100790000A0E046E000E056E6DC000F06EC001F012
:1007A000D0DD00C06DF001C06EF0000E015C02E112
:1007B000030E005C01E241D060C0E9FF61C0EAFFC6
:1007C0007450000808E17350000805E172500008F9
:1007D00002E1715000082FE25E50EF126E520DE000
:1007E0006F6A706A000E705C02E16E506F5C05E229
:1007F000756A45DF6F4A702AF5D76DC075F03FDF27
:100800005F50EF166E520DE06F6A706A000E705CFA
:1008100002E16E506F5C05E2756A31DF6F4A702A43
:10082000F5D76DC075F02BDF010E715E000E725AA8
:0C083000735A745AC5D75F50EF161200BF
:10083C00949894968B988B9694889486C79EC79C14
:06084C00380EC66E12001A
:1008520069C060F06AC061F06BC001F0010E006E09
:10086200015004E000360090FF0FFBD700C05EF09D
:10087200001E00C05FF0120E6924E96E000E6A20AD
:10088200EA6E0050EF16120EE95E0050EF161200EB
:10089200286A296A000E295C02E1320E285C22E2F3
:1008A20098DCA00E756EB3DC756AB1DC020E2824EA
:1008B200756EADDCDEDEA10E756EA9DC2C0E282471
:1008C200696E000E29206A6E756A25DD69C0E1FF36
:1008D2006AC0E2FF00C0E6FF7ADC00000000284A9E
:0608E200292AD8D71200FC
:1008E800690E756E000E766E6BC077F0010E786E2D
:1008F800010E796E9ADC005211E06BC000F06CC0FA
:1009080001F0003600900136180E0024E16E000E4A
:100918000120E26E010EE66E000EE66E6BC000F07E
:100928006CC001F0003600900136180E0024E96E04
:10093800000E0120EA6EEE50EE1020E0690E756E92
:10094800000E766E6BC077F0010E786E796A6DDCFA
:10095800005214E06BC000F06CC001F0003600904B
:100968000136180E0024E16E000E0120E26EE66AE0
:10097800E66A010E006E000E016E02D0006A016A7E
:0209880012005B
:10098A0024DCA00E756E3FDC756A3DDC020E756EC6
:10099A003ADC286A296A000E295C02E1320E285CD8
:1009AA000CE22C0E2824E96E000E2920EA6EEECF06
:1009BA0075F029DC284A292AEED705DC0000000058
:0209CA00120019
:1009CC0069DC69C004F06AC005F085EC00F008C071
:0C09DC0000F009C001F06B500026120072
:1009E80096EC08F06E0ED36E070EB46E020EC26E51
:1009F8000F0EC16E1F0E926E936A0F0E956EFF0E4C
:100A08009214806E816AFF0E9514836E800E696E53
:100A18000F0E6A6E050E6B6E18DF15C07CF0000EA7
:100A28007D6E0EEC00F0140EC86E04DF818881B86C
:100A380002D0819601D0818681B602D0819401D0FE
:100A4800818481B402D0819201D0818281B202D0A6
:100A5800819001D08180F40E696E010E6A6EFA0EE3
:100A68006B6E000E6C6E20DE819881B802D0819684
:100A780001D0818681B602D0819401D0818481B46D
:100A880002D0819201D0818281B202D0819001D0BE
:100A98008180FBDE060E0B6E130E0C6EAD0E0D6E16
:100AA8000D2EFED70C2EFCD70B2EFAD70000000017
:100AB800818881B802D0819601D0818681B602D022
:100AC800819401D0818481B402D0819201D0818245
:100AD80081B202D0819001D08180F40E696E010E3E
:100AE8006A6EFA0E6B6E000E6C6EDEDD819881B850
:100AF80002D0819601D0818681B602D0819401D03E
:100B0800818481B402D0819201D0818281B202D0E5
:100B1800819001D08180000E171802E1000E16188E
:100B2800D8A4BDD183CF69F0000E6A6E030E6B6E38
:100B3800000E6C6ED5DE00500110D8B47AD0286A49
:100B4800296A000E295C02E1320E285CD8B06FD009
:100B58002C0E2824676E000E2920686E41D08180F3
:100B6800B00E696E040E6A6EFA0E6B6E000E6C6E35
:100B78009BDD819059D08182780E696E050E6A6E70
:100B8800FA0E6B6E000E6C6E8FDD81924DD08184F3
:100B9800400E696E060E6A6EFA0E6B6E000E6C6E73
:100BA80083DD819441D08186080E696E070E6A6ED6
:100BB800FA0E6B6E000E6C6E77DD819635D08188EB
:100BC800D00E696E070E6A6EFA0E6B6E000E6C6EB2
:100BD8006BDD819829D0320E286E000E296E24D044
:100BE80067C0E9FF68C0EAFFEE50000AB8E067C0D6
:100BF800E9FF68C0EAFFEE50010ABDE067C0E9FFFF
:100C080068C0EAFFEE50020AC2E067C0E9FF68C0A8
:100C1800EAFFEE50030AC7E067C0E9FF68C0EAFFD1
:100C2800EE50040ACCE0D7D7284A292A8AD7166A70
:100C3800176A83CF69F0000E6A6E010E6B6E000EA4
:100C48006C6E4EDE0050011060E0286A296A000EC2
:100C5800295C02E1190E285C58E2040E696E000E48
:100C68006A6E6B6A6C6AAEDE00C015F03CD081809B
:100C7800B00E696E040E6A6EFA0E6B6E000E6C6E24
:100C880013DD81903FD08182780E696E050E6A6E01
:100C9800FA0E6B6E000E6C6E07DD819233D0818484
:100CA800400E696E060E6A6EFA0E6B6E000E6C6E62
:100CB800FBDC819427D08186080E696E070E6A6E68
:100CC800FA0E6B6E000E6C6EEFDC81961BD081887D
:100CD800D00E696E070E6A6EFA0E6B6E000E6C6EA1
:100CE800E3DC81980FD01550000AC1E01550010AC5
:100CF800CAE01550020AD3E01550030ADCE015508B
:100D0800040AE5E0284A292AA2D783CF69F0000E11
:100D18006A6E020E6B6E000E6C6EE2DD0050011002
:100D28004CE0286A296A000E295C02E1320E285C30
:100D38000BE22C0E2824E16E000E2920E26E080E2C
:100D4800E66E284A292AEFD72A6A2B6A010E166E00
:100D5800000E176E818881B802D0819601D08186F5
:100D680081B602D0819401D0818481B402D081926D
:100D780001D0818281B202D0819001D08180F40EAD
:100D8800696E010E6A6EFA0E6B6E000E6C6E8CDC6C
:100D9800819881B802D0819601D0818681B602D02F
:100DA800819401D0818481B402D0819201D0818262
:100DB80081B202D0819001D0818080CF69F0000E8D
:100DC8006A6E040E6B6E000E6C6E8ADD00500110A8
:100DD8000BE08180B00E696E040E6A6EFA0E6B6EBF
:100DE800000E6C6E61DC819080CF69F0000E6A6E37
:100DF800030E6B6E000E6C6E73DD005001100BE07D
:100E08008182780E696E050E6A6EFA0E6B6E000EA0
:100E18006C6E4ADC819280CF69F0000E6A6E020E19
:100E28006B6E000E6C6E5CDD005001100BE081846F
:100E3800400E696E060E6A6EFA0E6B6E000E6C6ED0
:100E480033DC819480CF69F0000E6A6E010E6B6E00
:100E5800000E6C6E45DD005001100BE08186080E17
:100E6800696E070E6A6EFA0E6B6E000E6C6E1CDCF5
:100E7800819680CF69F0000E6A6E6B6A6C6A30DD0D
:100E8800005001100BE08188D00E696E070E6A6E63
:100E9800FA0E6B6E000E6C6E07DC819835D1000E71
:100EA8002B1802E1310E2A180DE083CF69F0000EED
:100EB8006A6E020E6B6E000E6C6E12DD0050011031
:100EC80001E17BD02A6A2B6A166A176A818881B881
:100ED80002D0819601D0818681B602D0819401D05A
:100EE800818481B402D0819201D0818281B202D002
:100EF800819001D08180F40E696E010E6A6EFA0E3F
:100F08006B6E000E6C6E58EC03F0819881B802D0BD
:100F1800819601D0818681B602D0819401D08184E6
:100F280081B402D0819201D0818281B202D08190B5
:100F380001D0818026DD030E0B6E8A0E0C6E550ED5
:100F48000D6E0D2EFED70C2EFCD70B2EFAD70000F7
:100F58000000818881B802D0819601D0818681B64F
:100F680002D0819401D0818481B402D0819201D0D1
:100F7800818281B202D0819001D08180F40E696EA5
:100F8800010E6A6EFA0E6B6E000E6C6E58EC03F072
:100F9800819881B802D0819601D0818681B602D02D
:100FA800819401D0818481B402D0819201D0818260
:100FB80081B202D0819001D0818080CF69F0000E8B
:100FC8006A6E040E6B6E000E6C6E8ADC00500110A7
:100FD80015E02C0E2A24E16E000E2B20E26EE66A44
:100FE8002A4A2B2A8180B00E696E040E6A6EFA0EA8
:100FF8006B6E000E6C6E58EC03F0819080CF69F038
:10100800000E6A6E030E6B6E000E6C6E69DC00508B
:10101800011016E02C0E2A24E16E000E2B20E26E41
:10102800010EE66E2A4A2B2A8182780E696E050E19
:101038006A6EFA0E6B6E000E6C6E58EC03F08192BD
:1010480080CF69F0000E6A6E020E6B6E000E6C6E39
:1010580047DC0050011016E02C0E2A24E16E000E29
:101068002B20E26E020EE66E2A4A2B2A8184400E5D
:10107800696E060E6A6EFA0E6B6E000E6C6E58EC98
:1010880003F0819480CF69F0000E6A6E010E6B6EDA
:10109800000E6C6E25DC0050011016E02C0E2A2480
:1010A800E16E000E2B20E26E030EE66E2A4A2B2A12
:1010B8008186080E696E070E6A6EFA0E6B6E000E58
:1010C8006C6E58EC03F0819680CF69F0000E6A6E62
:1010D8006B6A6C6A05DC0050011016E02C0E2A249D
:1010E800E16E000E2B20E26E040EE66E2A4A2B2AD1
:1010F8008188D00E696E070E6A6EFA0E6B6E000E4E
:0C1108006C6E58EC03F0819806D5FFD700
:10112C0010EE15F0170E006E010E016E140EF66E19
:0E113C00110EF76E000EF86E50EC03F012006C
:0111140001D9
:021115000000D8
:1011170000000000000000000000000000000000C8
:021127000000C6
:021129000000C4
:020000040030CA
:0D000100081F1EFF0381FF0FC00FE00F401E
:00000001FF
